:020000040800F2
:1000000000500020254A0008B1170008B317000867
:10001000B5170008B7170008B9170008000000005E
:10002000000000000000000000000000BB170008F6
:10003000BD17000800000000BF170008C117000826
:100040006D4A00086D4A00086D4A00086D4A0008B4
:100050006D4A00086D4A00086D4A00086D4A0008A4
:100060006D4A00086D4A00086D4A00086D4A000894
:100070006D4A00086D4A00086D4A00086D4A000884
:100080006D4A00086D4A00086D4A00086D4A000874
:100090006D4A00086D4A00086D4A00086D4A000864
:1000A0006D4A0008C91700086D4A00086D4A00082B
:1000B000D9170008E9170008F91700086D4A000869
:1000C0006D4A00086D4A00086D4A00086D4A000834
:1000D0006D4A00086D4A0008091800086D4A0008BA
:1000E0006D4A00086D4A00086D4A000800000000D3
:1000F0000000000000000000000000000000000000
:0C01000000000000000000005FF808F1A3
:1001100010B5054C237833B9044B13B10448AFF341
:1001200000800123237010BDF009002000000000B2
:100130003C8E000808B5034B1BB103490348AFF3DD
:10014000008008BD00000000F40900203C8E00087B
:1001500081F0004102E000BF83F0004330B54FEA78
:1001600041044FEA430594EA050F08BF90EA020FE5
:100170001FBF54EA000C55EA020C7FEA645C7FEA78
:10018000655C00F0E2804FEA5454D4EB5555B8BF9B
:100190006D420CDD2C4480EA020281EA030382EA0C
:1001A000000083EA010180EA020281EA0303362D9E
:1001B00088BF30BD11F0004F4FEA01314FF4801C71
:1001C0004CEA113102D0404261EB410113F0004F83
:1001D0004FEA03334CEA133302D0524263EB43033A
:1001E00094EA050F00F0A780A4F10104D5F1200ED8
:1001F0000DDB02FA0EFC22FA05F2801841F1000133
:1002000003FA0EF2801843FA05F359410EE0A5F106
:1002100020050EF1200E012A03FA0EFC28BF4CF037
:10022000020C43FA05F3C01851EBE37101F00045ED
:1002300007D54FF0000EDCF1000C7EEB00006EEBFA
:100240000101B1F5801F1BD3B1F5001F0CD3490884
:100250005FEA30004FEA3C0C04F101044FEA4452DB
:1002600012F5800F80F09A80BCF1004F08BF5FEA62
:10027000500C50F1000041EB045141EA050130BD42
:100280005FEA4C0C404141EB0101013C28BFB1F554
:10029000801FE9D291F0000F04BF01460020B1FA9F
:1002A00081F308BF2033A3F10B03B3F120020CDA72
:1002B0000C3208DD02F1140CC2F10C0201FA0CF050
:1002C00021FA02F10CE002F11402D8BFC2F1200CB5
:1002D00001FA02F120FA0CFCDCBF41EA0C0190406B
:1002E000E41AA2BF01EB0451294330BD6FEA0404B4
:1002F0001F3C1CDA0C340EDC04F11404C4F120029F
:1003000020FA04F001FA02F340EA030021FA04F3B0
:1003100045EA030130BDC4F10C04C4F1200220FA07
:1003200002F001FA04F340EA0300294630BD21FA45
:1003300004F0294630BD94F0000F83F4801306BF0B
:1003400081F480110134013D4EE77FEA645C18BFFF
:100350007FEA655C29D094EA050F08BF90EA020F96
:1003600005D054EA000C04BF1946104630BD91EA8E
:10037000030F1EBF0021002030BD5FEA545C05D191
:100380004000494128BF41F0004130BD14F58004D0
:100390003CBF01F5801130BD01F0004545F0FE4144
:1003A00041F470014FF0000030BD7FEA645C1ABF79
:1003B000194610467FEA655C1CBF0B46024650EAB0
:1003C000013406BF52EA033591EA030F41F40021DC
:1003D00030BD00BF90F0000F04BF0021704730B562
:1003E0004FF4806404F132044FF000054FF0000137
:1003F00050E700BF90F0000F04BF0021704730B5F8
:100400004FF4806404F1320410F0004548BF4042CC
:100410004FF000013EE700BF42004FEAE2014FEA21
:1004200031014FEA02701FBF12F07F4393F07F4FFC
:1004300081F06051704732F07F4208BF704793F0FF
:100440007F4F04BF41F40021704730B54FF4607412
:1004500001F0004521F000411CE700BF50EA010215
:1004600008BF704730B54FF000050AE050EA0102BE
:1004700008BF704730B511F0004502D5404261EB2E
:1004800041014FF4806404F132045FEA915C3FF46F
:10049000D8AE4FF003025FEADC0C18BF03325FEA0C
:1004A000DC0C18BF033202EBDC02C2F1200300FABD
:1004B00003FC20FA02F001FA03FE40EA0E0021FAE2
:1004C00002F11444BDE600BF70B54FF0FF0C4CF4D0
:1004D000E06C1CEA11541DBF1CEA135594EA0C0F82
:1004E00095EA0C0F00F0DEF82C4481EA030621EABD
:1004F0004C5123EA4C5350EA013518BF52EA0335F8
:1005000041F4801143F4801338D0A0FB02CE4FF0A9
:100510000005E1FB02E506F00042E0FB03E54FF0D9
:100520000006E1FB03569CF0000F18BF4EF0010ED1
:10053000A4F1FF04B6F5007F64F5407404D25FEACD
:100540004E0E6D4146EB060642EAC62141EA555180
:100550004FEAC52040EA5E504FEACE2EB4F1FD0CC2
:1005600088BFBCF5E06F1ED8BEF1004F08BF5FEA40
:10057000500E50F1000041EB045170BD06F00046F2
:1005800046EA010140EA020081EA0301B4EB5C049F
:10059000C2BFD4EB0C0541EA045170BD41F4801197
:1005A0004FF0000E013C00F3AB8014F1360FDEBFBC
:1005B000002001F0004170BDC4F10004203C35DA98
:1005C0000C341BDC04F11404C4F1200500FA05F31B
:1005D00020FA04F001FA05F240EA020001F00042BC
:1005E00021F0004110EBD37021FA04F642EB060132
:1005F0005EEA430E08BF20EAD37070BDC4F10C045C
:10060000C4F1200500FA04F320FA05F001FA04F21F
:1006100040EA020001F0004110EBD37041F100010B
:100620005EEA430E08BF20EAD37070BDC4F1200516
:1006300000FA05F24EEA020E20FA04F301FA05F27E
:1006400043EA020321FA04F001F0004121FA04F226
:1006500020EA020000EBD3705EEA430E08BF20EAF6
:10066000D37070BD94F0000F0FD101F00046400030
:1006700041EB010111F4801F08BF013CF7D041EAB2
:10068000060195F0000F18BF704703F000465200B6
:1006900043EB030313F4801F08BF013DF7D043EA87
:1006A0000603704794EA0C0F0CEA135518BF95EA3D
:1006B0000C0F0CD050EA410618BF52EA4306D1D1C4
:1006C00081EA030101F000414FF0000070BD50EAE3
:1006D000410606BF1046194652EA430619D094EA6D
:1006E0000C0F02D150EA013613D195EA0C0F05D157
:1006F00052EA03361CBF104619460AD181EA0301AB
:1007000001F0004141F0FE4141F470014FF0000062
:1007100070BD41F0FE4141F4780170BD70B54FF0FD
:10072000FF0C4CF4E06C1CEA11541DBF1CEA13557D
:1007300094EA0C0F95EA0C0F00F0A7F8A4EB05045F
:1007400081EA030E52EA03354FEA013100F0888056
:100750004FEA03334FF0805545EA131343EA12631F
:100760004FEA022245EA111545EA10654FEA0026D4
:100770000EF000419D4208BF964244F1FD0404F58D
:10078000407402D25B084FEA3202B61A65EB0305E9
:100790005B084FEA32024FF480104FF4002CB6EBA6
:1007A000020E75EB030E22BFB61A754640EA0C0026
:1007B0005B084FEA3202B6EB020E75EB030E22BF66
:1007C000B61A754640EA5C005B084FEA3202B6EBA7
:1007D000020E75EB030E22BFB61A754640EA9C0066
:1007E0005B084FEA3202B6EB020E75EB030E22BF36
:1007F000B61A754640EADC0055EA060E18D04FEAF4
:10080000051545EA16754FEA06164FEAC30343EA93
:1008100052734FEAC2025FEA1C1CC0D111F4801F60
:100820000BD141EA00014FF000004FF0004CB6E759
:1008300011F4801F04BF01430020B4F1FD0C88BFF8
:10084000BCF5E06F3FF6AFAEB5EB030C04BFB6EB03
:10085000020C5FEA500C50F1000041EB045170BDF6
:100860000EF0004E4EEA113114EB5C04C2BFD4EB23
:100870000C0541EA045170BD41F480114FF0000EA7
:10088000013C90E645EA060E8DE60CEA135594EA23
:100890000C0F08BF95EA0C0F3FF43BAF94EA0C0F26
:1008A0000AD150EA01347FF434AF95EA0C0F7FF49B
:1008B00025AF104619462CE795EA0C0F06D152EAEF
:1008C00003353FF4FDAE1046194622E750EA4106D3
:1008D00018BF52EA43067FF4C5AE50EA41047FF4E4
:1008E0000DAF52EA43057FF4EBAE12E74FEA410247
:1008F000B2F1E04324BFB3F5001CDCF1FE5C0DD97E
:1009000001F0004C4FEAC0024CEA5070B2F1004FC7
:1009100040EB830008BF20F00100704711F0804FCA
:1009200021D113F13872BCBF01F00040704741F48F
:1009300080114FEA5252C2F11802C2F1200C10FA93
:100940000CF320FA02F018BF40F001004FEAC12377
:100950004FEAD32303FA0CFC40EA0C0023FA02F31B
:100960004FEA4303CCE77FEA625307D150EA0133F1
:100970001EBF4FF0FE4040F44000704701F00040C1
:1009800040F0FE4040F40000704700BF80F000409F
:1009900002E000BF81F0004142001FBF5FEA410357
:1009A00092EA030F7FEA226C7FEA236C6AD04FEA57
:1009B0001262D2EB1363C1BFD2184140484041409C
:1009C000B8BF5B42192B88BF704710F0004F40F44E
:1009D000000020F07F4018BF404211F0004F41F46A
:1009E000000121F07F4118BF494292EA030F3FD036
:1009F000A2F1010241FA03FC10EB0C00C3F1200349
:100A000001FA03F100F0004302D5494260EB4000D7
:100A1000B0F5000F13D3B0F1807F06D340084FEA42
:100A2000310102F10102FE2A51D2B1F1004F40EB37
:100A3000C25008BF20F0010040EA0300704749009F
:100A400040EB0000013A28BFB0F5000FEDD2B0FA3C
:100A500080FCACF1080CB2EB0C0200FA0CF0AABF5F
:100A600000EBC25052421843BCBFD04018437047FD
:100A700092F0000F81F4000106BF80F40000013203
:100A8000013BB5E74FEA41037FEA226C18BF7FEADA
:100A9000236C21D092EA030F04D092F0000F08BF1C
:100AA0000846704790EA010F1CBF0020704712F003
:100AB0007F4F04D1400028BF40F00040704712F142
:100AC00000723CBF00F50000704700F0004343F0A7
:100AD000FE4040F4000070477FEA226216BF0846DD
:100AE0007FEA23630146420206BF5FEA412390EAA0
:100AF000010F40F4800070474FF0000304E000BF96
:100B000010F0004348BF40425FEA000C08BF704746
:100B100043F0964301464FF000001CE050EA01020A
:100B200008BF70474FF000030AE000BF50EA01021F
:100B300008BF704711F0004302D5404261EB41010C
:100B40005FEA010C02BF84460146002043F0B64331
:100B500008BFA3F18053A3F50003BCFA8CF2083A56
:100B6000A3EBC25310DB01FA02FC634400FA02FC5F
:100B7000C2F12002BCF1004F20FA02F243EB020066
:100B800008BF20F00100704702F1200201FA02FCC8
:100B9000C2F1200250EA4C0021FA02F243EB0200BB
:100BA00008BF20EADC7070474FF0FF0C1CEAD052FF
:100BB0001EBF1CEAD15392EA0C0F93EA0C0F6FD0C0
:100BC0001A4480EA010C400218BF5FEA41211ED09E
:100BD0004FF0006343EA501043EA5111A0FB01318A
:100BE0000CF00040B1F5000F3EBF490041EAD3715F
:100BF0005B0040EA010062F17F02FD2A1DD8B3F1DB
:100C0000004F40EBC25008BF20F00100704790F049
:100C1000000F0CF0004C08BF49024CEA502040EA9B
:100C200051207F3AC2BFD2F1FF0340EAC250704761
:100C300040F400004FF00003013A5DDC12F1190F9F
:100C4000DCBF00F000407047C2F10002410021FA11
:100C500002F1C2F1200200FA02FC5FEA310040F129
:100C6000000053EA4C0308BF20EADC70704792F0A2
:100C7000000F00F0004C02BF400010F4000F013ADA
:100C8000F9D040EA0C0093F0000F01F0004C02BFD5
:100C9000490011F4000F013BF9D041EA0C018FE744
:100CA0000CEAD15392EA0C0F18BF93EA0C0F0AD04A
:100CB00030F0004C18BF31F0004CD8D180EA010070
:100CC00000F00040704790F0000F17BF90F0004F09
:100CD000084691F0000F91F0004F14D092EA0C0FEB
:100CE00001D142020FD193EA0C0F03D14B0218BF7E
:100CF000084608D180EA010000F0004040F0FE40C4
:100D000040F40000704740F0FE4040F4400070475F
:100D10004FF0FF0C1CEAD0521EBF1CEAD15392EADE
:100D20000C0F93EA0C0F69D0A2EB030280EA010CCE
:100D300049024FEA402037D04FF0805343EA111167
:100D400043EA10130CF000408B4238BF5B0042F1C5
:100D50007D024FF4000C8B4224BF5B1A40EA0C006A
:100D6000B3EB510F24BFA3EB510340EA5C00B3EB9C
:100D7000910F24BFA3EB910340EA9C00B3EBD10F8A
:100D800024BFA3EBD10340EADC001B0118BF5FEADC
:100D90001C1CE0D1FD2A3FF650AF8B4240EBC25005
:100DA00008BF20F0010070470CF0004C4CEA5020C6
:100DB0007F32C2BFD2F1FF0340EAC250704740F415
:100DC00000004FF00003013A37E792F0000F00F007
:100DD000004C02BF400010F4000F013AF9D040EA85
:100DE0000C0093F0000F01F0004C02BF490011F419
:100DF000000F013BF9D041EA0C0195E70CEAD15311
:100E000092EA0C0F08D142027FF47DAF93EA0C0FF7
:100E10007FF470AF084676E793EA0C0F04D14B02DB
:100E20003FF44CAF08466EE730F0004C18BF31F08D
:100E3000004CCAD130F000427FF45CAF31F0004387
:100E40007FF43CAF5FE700BF4FF0FF3C06E000BF20
:100E50004FF0010C02E000BF4FF0010C4DF804CD43
:100E60004FEA40024FEA41037FEA226C18BF7FEA53
:100E7000236C11D001B052EA530C18BF90EA010F55
:100E800058BFB2EB030088BFC81738BF6FEAE170E4
:100E900018BF40F0010070477FEA226C02D15FEA80
:100EA000402C05D17FEA236CE4D15FEA412CE1D0EC
:100EB0005DF8040B704700BF844608466146FFE7B3
:100EC0000FB5FFF7C9FF002848BF10F1000F0FBD95
:100ED0004DF808EDFFF7F4FF0CBF012000205DF88E
:100EE00008FB00BF4DF808EDFFF7EAFF34BF012013
:100EF00000205DF808FB00BF4DF808EDFFF7E0FFAC
:100F000094BF012000205DF808FB00BF4DF808EDFC
:100F1000FFF7D2FF94BF012000205DF808FB00BF5F
:100F20004DF808EDFFF7C8FF34BF012000205DF841
:100F300008FB00BF4FEA4002B2F1FE4F0FD34FF063
:100F40009E03B3EB12620DD94FEA002343F0004336
:100F500010F0004F23FA02F018BF404270474FF0E4
:100F60000000704712F1610F01D1420205D110F06B
:100F7000004008BF6FF0004070474FF0000070471E
:100F80002DE9F047089E0D4604468E46002B40F0A2
:100F900083808A42174647D9B2FA82F34BB1C3F134
:100FA000200105FA03FE20FA01F19F4041EA0E0EEE
:100FB0009C404FEA1748BEFBF8FC1FFA87F908FB74
:100FC0001CE20CFB09F0210C41EA024290420AD9D2
:100FD000BA180CF1FF3180F01881904240F215816F
:100FE000ACF1020C3A44121AB2FBF8F008FB1022E2
:100FF00000FB09F1A4B244EA0244A14209D93C1918
:1010000000F1FF3280F00381A14240F200810238FA
:101010003C44641A002140EA0C401EB10022DC402E
:10102000C6E90042BDE8F08702B9FFDEB2FA82F3FA
:10103000002B4FD18D1A01214FEA124E1FFA82F870
:10104000B5FBFEFC0EFB1C5508FB0CF0220C42EA23
:101050000545A84207D97D190CF1FF3202D2A842FA
:1010600000F2E98094462D1AB5FBFEF00EFB1055F8
:1010700008FB00F8A4B244EA0544A04507D93C198E
:1010800000F1FF3202D2A04500F2D9801046A4EB55
:10109000080440EA0C40C0E78B4208D9002E00F05B
:1010A000B1800021C6E900050846BDE8F087B3FA23
:1010B00083F100294BD1AB4202D3824200F2B980C6
:1010C000841A65EB030301209E46002EAAD0C6E9D0
:1010D000004EA7E79F40C3F12002D1404FEA174ED0
:1010E000B1FBFEF01FFA87F80EFB101124FA02F292
:1010F0009D4000FB08FC2A43150C45EA0145AC4520
:1011000004FA03F409D97D1900F1FF3180F08F80D2
:10111000AC4540F28C8002383D44A5EB0C05B5FB94
:10112000FEF10EFB115C01FB08F995B245EA0C4596
:10113000A94507D97D1901F1FF3274D2A94572D9A9
:1011400002393D44A5EB090541EA004178E7C1F1C8
:1011500020078B4022FA07FC4CEA030C25FA07F41F
:101160004FEA1C4EB4FBFEF91FFA8CF80EFB194433
:1011700020FA07F309FB08FA8D401D432B0C43EAC4
:101180000444A24502FA01F200FA01F309D91CEB6A
:10119000040409F1FF3048D2A24546D9A9F1020959
:1011A0006444A4EB0A04B4FBFEF00EFB104400FB05
:1011B00008FAADB245EA0444A24508D91CEB040480
:1011C00000F1FF352DD2A2452BD90238644440EA04
:1011D0000940A0FB0289A4EB0A044C45C6464D46D3
:1011E00019D316D05EB1B3EB0E0264EB050404FA1A
:1011F00007F722FA01F31F43CC40C6E9007400212F
:10120000BDE8F087314630460CE78C46EBE61046E9
:10121000FFE64345E6D2B8EB020E69EB0C05013858
:10122000E0E72846D3E711468CE78146B9E7084650
:1012300073E7084649E7ACF1020C3D4413E7023876
:101240003C4424E7704700BF844641EA000313F0A2
:10125000030349D1403A23D30B6803604B684360D2
:101260008B688360CB68C3600B6903614B69436122
:101270008B698361CB69C3610B6A03624B6A43620A
:101280008B6A8362CB6AC3620B6B03634B6B4363F2
:101290008B6B8363CB6BC36340304031403ADBD20E
:1012A00030320BD30B6803604B6843608B688360FC
:1012B000CB68C36010301031103AF3D20C3205D332
:1012C00051F8043B40F8043B043AF9D2043208D008
:1012D000D2071CBF11F8013B00F8013B01D30B887A
:1012E00003806046704700BF082A13D38B07B1D034
:1012F00010F00303AED0C3F10403D21ADB071CBF06
:1013000011F8013B00F8013BA4D331F8023B20F86F
:10131000023B9FE7043AD9D3013A11F8013B00F8A8
:10132000013BF9D20B7803704B7843708B78837054
:10133000604670474FF0FF3C06E000BF4FF0010CE5
:1013400002E000BF4FF0010C4DF804CD4FEA410C14
:101350007FEA6C5C4FEA430C18BF7FEA6C5C1BD0E1
:1013600001B050EA410C0CBF52EA430C91EA030F62
:1013700002BF90EA020F0020704710F1000F91EABF
:10138000030F58BF994208BF90422CBFD8176FEA8D
:10139000E37040F0010070474FEA410C7FEA6C5C5B
:1013A00002D150EA013C07D14FEA430C7FEA6C5C62
:1013B000D6D152EA033CD3D05DF8040B704700BF8E
:1013C0008446104662468C461946634600E000BFDC
:1013D00001B5FFF7B7FF002848BF10F1000F01BDAE
:1013E0004DF808EDFFF7F4FF0CBF012000205DF879
:1013F00008FB00BF4DF808EDFFF7EAFF34BF0120FE
:1014000000205DF808FB00BF4DF808EDFFF7E0FF96
:1014100094BF012000205DF808FB00BF4DF808EDE7
:10142000FFF7CEFF94BF012000205DF808FB00BF4E
:101430004DF808EDFFF7C4FF34BF012000205DF830
:1014400008FB00BF4FEA410C7FEA6C5C02D150EA16
:10145000013C0AD14FEA430C7FEA6C5C02D152EAAC
:10146000033C02D14FF0000070474FF0010070477D
:101470004FEA410212F5001215D211D56FF47873BC
:10148000B3EB625212D94FEAC12343F0004343EA5F
:10149000505311F0004F23FA02F018BF404270473A
:1014A0004FF00000704750EA013005D111F00040C4
:1014B00008BF6FF0004070474FF00000704700BF5A
:1014C00053B94AB9002908BF00281CBF4FF0FF31AB
:1014D0004FF0FF30FFF7B6BEADF1080C6DE904CE5A
:1014E000FFF74EFDDDF804E0DDE9022304B07047AC
:1014F00070B588B0002404940594069407941D4B9D
:101500009A6942F020029A619A6902F020020192DF
:10151000019A9A6942F004029A619A6902F00402FF
:101520000292029A9A6942F008029A619B6903F05A
:1015300008030393039B104D224646F603412846B9
:1015400001F066FC46F20303049301260596069417
:101550000224079404A9284601F04AFB4FF4406393
:10156000049305960696079404A9284601F040FBCB
:1015700008B070BD00100240000C014008B50B48D7
:101580000B4B03600B4B436000238360C3604FF43D
:101590008042026143618361C361036201F0A6FD81
:1015A00000B908BD00F0E0F8FBE700BF0C0A00201E
:1015B00000540040A086010010B586B000230293BD
:1015C0000393049305930268154B9A4201D006B029
:1015D00010BD144CA36943F00803A361A36903F091
:1015E00008030093009B4FF440730293122303936C
:1015F0000323059302A90C4801F0FAFA0B4A536839
:1016000043F0E06343F002035360E36943F40013E3
:10161000E361E36903F400130193019BD7E700BF83
:101620000054004000100240000C01400000014046
:1016300030B591B0002409940B940C940194029459
:10164000039404940594012206924FF48033079387
:1016500008940A9202250D950E934FF4E0130F9310
:1016600006A801F0E9FE0F230193029503944FF4BD
:10167000806304930594294601A802F01BF911B078
:1016800030BD000008B501F0A3F9FFF7D1FFFFF767
:101690002FFFFFF773FF00F0DFF800F047FA00F0CC
:1016A00011F900F08FFA00F041F92A4802F090FA9F
:1016B00001F092F801F0A8F8274800F093FF00F03D
:1016C0009BFF00F0EFFF00F0F4FF00F05CFB0BE08D
:1016D00000F068FF214BD3E900234FF4E1700021B3
:1016E000994208BF90421CD300F086FF01F0D8F861
:1016F0001A4A1368526813F1FF3442F1FF354FF470
:10170000E0720023AB4208BFA242E3D3144B1B7824
:10171000012BDDD0134B1B78012BDBD100F052FFE6
:10172000D8E70D4800F05EFF0D4B1B78012B06D06B
:101730000B4B01221A700B4B00221A70D4E7094B95
:101740001B78002BF4D1064B00221A70054B0122A6
:101750001A70C9E7400B002000000243A00C0020D3
:1017600000000020600A00207047000082B00E4B8D
:101770009A6942F001029A619A6902F001020092AC
:10178000009ADA6942F08052DA61DB6903F0805333
:101790000193019B054A536823F0E06343F0007313
:1017A000536002B0704700BF0010024000000140CB
:1017B0007047FEE7FEE7FEE7FEE7704770477047B9
:1017C00008B501F017F908BD08B5024802F038FA6B
:1017D00008BD00BF680A002008B5024802F030FAD0
:1017E00008BD00BFB00A002008B5024802F028FA80
:1017F00008BD00BFF80A002008B5024802F020FA30
:1018000008BD00BF400B002008B5024802F0D0FF21
:1018100008BD00BF880B002008B503460B4A1268BC
:1018200042B10A4A106803446A46934206D8074AFE
:10183000136008BD054A06491160F2E703F018F984
:101840000C2303604FF0FF30F3E700BF640A002071
:10185000300D00207047000000B58DB000230193CB
:1018600002931648164A0260436083604FF6FF7287
:10187000C2600361436183610322039204930121E7
:10188000059106930A220792089309910A930B92F5
:1018900003A902F025FB50B900230193029301A98B
:1018A000064802F06BFD28B90DB05DF804FBFFF7A8
:1018B0005BFFF1E7FFF758FFF6E700BF680A00207B
:1018C000002C014000B58DB0002301930293154810
:1018D000154A0260436083604FF6FF72C260036185
:1018E00083610322039204930121059106930A2246
:1018F0000792089309910A930B9203A902F0F0FA58
:1019000050B900230193029301A9064802F036FD65
:1019100028B90DB05DF804FBFFF726FFF1E7FFF7EC
:1019200023FFF6E7F80A00200004004000B587B066
:1019300000230293039304930593009301931548A6
:10194000154A02604722426083604FF47A72C26097
:101950000361836102F06CFA90B94FF480530293F3
:1019600002A90C4802F0B9FB68B900230093019367
:101970006946084802F002FD40B907B05DF804FB73
:10198000FFF7F2FEE9E7FFF7EFFEEEE7FFF7ECFE09
:10199000F3E700BF400B00200008004010B588B0FE
:1019A000002304930593069307930368294A9342FF
:1019B00004D0294A934227D008B010BD274B9A691A
:1019C00042F400629A619A6902F400620092009AFD
:1019D0009A6942F004029A619B6903F0040301933F
:1019E000019B4FF44073049300240594069404A9CA
:1019F0001B4801F0FDF822462146192001F032F87B
:101A0000192001F063F8D7E7144BDA6942F00202BB
:101A1000DA61DA6902F002020292029A9A6942F0ED
:101A200004029A619B6903F004030393039BC023A0
:101A3000049300240594069404A9094801F0D8F8F9
:101A4000224621461D2001F00DF81D2001F03EF830
:101A5000B2E700BF002C014000040040001002402B
:101A6000000801400368B3F1804F00D0704700B513
:101A700083B003F50433DA6942F00102DA61DB690D
:101A800003F001030193019B002211461C2000F08A
:101A9000E9FF1C2001F01AF803B05DF804FB000018
:101AA00002680E4B9A4200D0704700B583B003F530
:101AB0000233DA6942F00402DA61DB6903F00403FD
:101AC0000193019B002201211E2000F0CBFF1E206C
:101AD00000F0FCFF03B05DF804FB00BF000800400D
:101AE00000B587B000230293039304930593036822
:101AF000B3F1804F02D007B05DF804FB03F5043367
:101B00009A6942F004029A619B6903F0040301930D
:101B1000019B0323029302230393059302A9024826
:101B200001F066F8E7E700BF0008014000B58BB0A0
:101B3000002308930993019302930393049305935D
:101B4000069307931E484FF080420260472242608E
:101B5000836041F63F72C2600361836102F094F9D1
:101B600008BB00230893099308A9154802F006FC56
:101B7000E0B9602301934FF47A6302930022039249
:101B8000059201A90E4802F035FA90B904220DEB36
:101B900002010B4802F02EFA70B90948FFF7A0FFC6
:101BA0000BB05DF804FBFFF7DFFDDAE7FFF7DCFDC4
:101BB000DFE7FFF7D9FDE9E7FFF7D6FDEDE700BF67
:101BC000B00A002008B50A480A4B03604FF41653C8
:101BD000436000238360C36003610C224261836120
:101BE000C36102F0C7FC00B908BDFFF7BDFDFBE70C
:101BF000880B00200044004030B587B000230293DA
:101C000003930493059302681B4B9A4201D007B0DB
:101C100030BD03F5E633DA6942F40032DA61DA699D
:101C200002F400320092009A9A6942F004029A612A
:101C30009B6903F004030193019B04230293022395
:101C40000393032305930D4D02A9284600F0D0FF0E
:101C5000082302930024039404940DEB0301284607
:101C600000F0C6FF22462146262000F0FBFE26207B
:101C700000F02CFFCBE700BF00440040000801400B
:101C800038B505460C4600F0E1F8D02000F082F9A6
:101C900000F018F978B9284600F07CF900F012F944
:101CA000204600F077F900F00DF9044638B900F04D
:101CB000EBF8204638BD00F0E7F80124F9E700F022
:101CC000E3F80124F5E708B5C10001F0F8011B2095
:101CD000FFF7D6FF08BD08B5C10001F0F8011C20D0
:101CE000FFF7CEFF08BD08B5BB2809D861280CD87E
:101CF00029280CD813280CD809280CD9052100E074
:101D000001211A20FFF7BCFF08BD0221F9E70321DA
:101D1000F7E70421F5E70621F3E710B5B0F57A7F80
:101D200004D80446032803D8042401E04FF47A744D
:101D30004FF47A7191FBF4F1C9B20139C9B219209B
:101D4000FFF79EFF6008FFF7CEFF10BD10B50446F9
:101D500000F07CF8D02000F01DF900F0B3F8204628
:101D600000F018F900F0AEF800F070F8D12000F0A3
:101D700011F900F0A7F8002000F034F9044600F053
:101D800083F8204610BD10B500F03EF880216B208E
:101D9000FFF776FF642000F075F900216B20FFF754
:101DA0006FFF0320FFF78FFF0020FFF794FF322023
:101DB000FFF7B3FF00213820FFF762FF00216A2000
:101DC000FFF75EFF00212320FFF75AFF8021372015
:101DD000FFF756FF7520FFF7B9FF10B10124204629
:101DE00010BD044601216B20FFF74AFF00216C2043
:101DF000FFF746FF3220FFF790FFF0E708B502201B
:101E000000F022F908BD000010B586B00D4B9A69AC
:101E100042F004029A619B6903F004030193019B61
:101E20004FF440610291012203920492032305932F
:101E3000054C204600F0ECFF02A9204600F0D8FE39
:101E400006B010BD00100240000C014070B50B4BF5
:101E50001A6822F470421A601A6842F440521A60FA
:101E6000074E01233360074C2360FFF7C7FF0025AF
:101E70003560FFF7C3FF256070BD00BF000C014057
:101E8000AC812142A881214238B50B4B1A6822F45B
:101E900070421A601A6842F440521A60074D0023DB
:101EA0002B60074C2360FFF7A9FF01232B60236001
:101EB000FFF7A4FF38BD00BF000C0140A8812142FC
:101EC000AC81214210B5114B1A6822F470421A609D
:101ED0001A6842F400421A6001240D4B1C60FFF79F
:101EE0008DFF0C4B1C60FFF789FF00230A4A126824
:101EF0003AB10133DBB2FA2BF8D9FFF7C5FF012065
:101F000002E00020034B186010BD00BF000C014030
:101F1000AC812142A88121422C81214238B50B4C51
:101F2000002525600A4B1A6822F470421A601A686C
:101F300042F440521A60074B1D60FFF75FFF012318
:101F40002360FFF75BFF256038BD00BFA8812142F9
:101F5000000C0140AC81214270B50B4C002525607E
:101F60000A4B1A6822F470421A601A6842F440520E
:101F70001A600126064B1E60FFF740FF2660FFF740
:101F80003DFF256070BD00BFA8812142000C0140CB
:101F9000AC81214270B505460F4B1A6822F470429D
:101FA0001A601A6842F440521A6000240B4B1C60FD
:101FB0000FE0EA090A4B1A606D00EDB2074E0123EB
:101FC0003360FFF71BFF00233360FFF717FF013477
:101FD000E4B2072CEDD970BD000C0140A88121426C
:101FE000AC812142F8B50746144B1A6822F47042BE
:101FF0001A601A6842F400421A600024264603E080
:10200000FFF7FCFE731CDEB2072E0FD80C4D002329
:102010002B60FFF7F3FE01232B609C40E4B2094BD9
:102020001B68002BECD00134E4B2E9E71FB9FFF7DD
:1020300093FF2046F8BDFFF771FFFAE7000C01405F
:10204000A88121422C81214230B40C4B5D680C4A9E
:10205000146800FB04F49B68002104E0E81A0244C1
:102060001144A14208D21A46044B9B689A42FBD005
:10207000F4D9D21A1144F4E730BC704710E000E004
:10208000CC0B002038B505460024A54205D94FF4F5
:102090007A70FFF7D9FF0134F7E738BD38B5FEF79E
:1020A00049FF04463C21144802F004F9002C16DDD7
:1020B000124D00220121284600F0AAFE0122022131
:1020C000284600F0A5FE0E4D0021284602F084F8B7
:1020D0002A68D36A0F3BA34200D9546338BD6442D7
:1020E000064D01221146284600F092FE00220221F0
:1020F000284600F08DFEE6E7680A0020000C01404B
:10210000B00A002038B5FEF715FF04463C211648FA
:1021100002F0D0F8002C18DD144D00224FF40051CD
:10212000284600F075FE01224FF48041284600F059
:102130006FFE0F4D0421284602F04EF82A68D36A3C
:102140000F3BA34200D9946338BD6442074D01227E
:102150004FF40051284600F05BFE00224FF480410E
:10216000284600F055FEE4E7F80A0020000C014084
:10217000B00A00204C4B1B788B4204D04A4A13789B
:102180000133137070472DE9F04387B005460C46C4
:10219000464E70603068281AFEF7B2FCB060FEF759
:1021A0003BF9804689464FF47A7090FBF4F0FEF7D5
:1021B00021F900223E4BFEF787F902460B464046C6
:1021C0004946FEF781F900223A4BFEF7A7FA3A4B4F
:1021D0001C7804F101085FFA88F883F80080FEF7A4
:1021E00085FB364B43F824003560B8F10A0F24D044
:1021F0002D4B00221A702C4A13780133137007B04C
:10220000BDE8F0830134E4B2A14608F1FF339C42FB
:1022100011DA2A4B53F82460651C53F825703946AF
:102220003046FEF77DFE0028ECD0244B43F82970A1
:1022300043F82560E6E75FFA83F8B8F1000F01D0B4
:102240000024E1E70020022406E01C4B53F8241090
:10225000FEF7A2FB0134E4B2072CF6D91849FEF7C9
:1022600057FD0546174E18493068FEF79DFC044699
:1022700016492846FEF798FC01462046FEF78CFBDF
:102280003060FEF7C9F802460B46114901A802F07A
:1022900069FC052301AA0221012000F081FA064B06
:1022A00000221A70A4E700BF060C0020D40B002007
:1022B00000004E4000A09440040C0020080C0020B8
:1022C0000000C040EC0B0020B81E053F8FC2F53E59
:1022D000708E00084C4B1B788B4204D04A4A13780E
:1022E0000133137070472DE9F04387B005460C4663
:1022F000464E70603068281AFEF702FCB060FEF7A8
:102300008BF8804689464FF47A7090FBF4F0FEF724
:1023100071F800223E4BFEF7D7F802460B464046C6
:102320004946FEF7D1F800223A4BFEF7F7F93A4B4F
:102330001C7804F101085FFA88F883F80080FEF742
:10234000D5FA364B43F824003560B8F10A0F24D093
:102350002D4B00221A702C4A13780133137007B0EA
:10236000BDE8F0830134E4B2A14608F1FF339C429A
:1023700011DA2A4B53F82460651C53F8257039464E
:102380003046FEF7CDFD0028ECD0244B43F82970F1
:1023900043F82560E6E75FFA83F8B8F1000F01D053
:1023A0000024E1E70020022406E01C4B53F824102F
:1023B000FEF7F2FA0134E4B2072CF6D91849FEF719
:1023C000A7FC0546174E18493068FEF7EDFB04469A
:1023D00016492846FEF7E8FB01462046FEF7DCFAE0
:1023E0003060FEF719F802460B46114901A802F0C9
:1023F000B9FB052301AA0421012000F0D1F9064B05
:1024000000221A70A4E700BF070C0020E00B002098
:1024100000004E4000A09440050C0020300C00202D
:102420000000C040F40B0020B81E053F8FC2F53EEF
:102430007C8E0008034B1B685B6A034A106803EB41
:1024400000407047680A0020FC0B0020034B1B680B
:102450005B6A034A106803EB00407047F80A0020EB
:10246000000C00200268404B9A4208D002683F4BA3
:102470009A4214D002683E4B9A4220D070473D4B9E
:102480001B681B6813F0100F04D03B4A1368013B14
:102490001360EBE7384A136801331360E6E7374B04
:1024A0001B681B6813F0100F04D0354A1368013BFA
:1024B0001360DFE7324A136801331360DAE770B55F
:1024C000304C236801332360FFF7B4FF3221FFF75C
:1024D00051FEFFF7BBFF3221FFF7FCFE22682A49BD
:1024E00081FB0231D317C3EB2113322101FB1323EC
:1024F00003B170BD254D2968254800F09DF9FEF710
:10250000FFFA6860234E3168234800F095F9FEF722
:10251000F7FA044670606D6820492846FEF7F6FC1D
:1025200070B11A4B1D4A5A601C492046FEF7EEFC5A
:1025300080B1184B194A5A60124B00221A60D8E732
:1025400017492846FEF7D8FC0028EDD00F4B144A57
:102550005A60E9E712492046FEF7CEFC0028EBD08E
:102560000C4B0F4A5A60E7E7002C01400004004082
:1025700000080040680A0020FC0B0020F80A002038
:10258000000C0020D00B00201F85EB51EC0B00202D
:10259000580C0020F40B00207C0C00200000FA45B1
:1025A0000000FAC5034B044A1A60044B044A1A603F
:1025B000704700BF7C0C00200000DC42580C00205B
:1025C0000000DCC2034B044A1A60044B044A1A6040
:1025D000704700BF7C0C00200000DCC2580C0020BB
:1025E0000000DC42024B1860024B1860704700BFCD
:1025F0007C0C0020580C002008B5044B5868FFF7ED
:1026000081FD034B5868FFF749FD08BDF40B00201E
:10261000EC0B002010B584B000240EE04FF4807362
:10262000029301230193074A224400920022782159
:10263000054800F039FE0134E4B21A2CEED904B09A
:1026400010BD00BF080000200C0A002000B587B0B4
:102650008DF817004FF480730293012301930DF15D
:102660001702009200227821024800F01DFE07B0F8
:102670005DF804FB0C0A002000B587B08DF8170048
:102680004FF480730293012301930DF1170200921E
:1026900040227821024800F007FE07B05DF804FBF5
:1026A0000C0A002008B5C82000F0B6F9FFF7B2FF09
:1026B00008BD38B5002501E00135EDB2072D14D86D
:1026C000A5F15000C0B2FFF7C1FF0020FFF7BEFF29
:1026D0001020FFF7BBFF002414F0800FECD1002086
:1026E000FFF7CAFF0134E4B2F6E738BD10B504467F
:1026F000A1F15000C0B2FFF7A9FF200940F010007F
:10270000FFF7A4FF04F00F00FFF7A0FF10BD0000CB
:10271000F8B507460E46203AD5B210F0800F13D117
:10272000102B15D031463846FFF7E0FF0024052C6A
:1027300030D805EB4503184A02EB4303185DFFF759
:102740009BFF0134E4B2F2E70236F6B20027E7E776
:1027500031463846FFF7CAFF002407E004EB0513B3
:102760000E4AD05CFFF788FF0134E4B2072CF5D99C
:10277000711CC9B23846FFF7B9FF002408E004EB2A
:1027800005130833054AD05CFFF776FF0134E4B245
:10279000072CF4D9F8BD00BF888E0008B09000085F
:1027A0002DE9F04104460E4617469846002501E003
:1027B0000135EDB27A5D62B1434631462046FFF7FE
:1027C000A7FF0834E4B2782CF2D90236F6B200241E
:1027D000EEE7BDE8F0810000074B00221A605A6066
:1027E0009A609A61DA611A62044ADA60044A1A61EC
:1027F000044A5A61704700BF580C0020000048414D
:102800003333B33ECDCC4C3D074B00221A605A60A7
:102810009A609A61DA611A62044ADA60044A1A61BB
:10282000044A5A61704700BF7C0C002000006841D8
:102830005C8FC23E0AD7A33D70B504460068FEF720
:10284000A9F8A061E568A069E169FEF7A3F801466F
:102850002846FEF7A9F905462069A169FEF7A4F903
:1028600001462846FEF798F805466669A069E169C1
:10287000FEF790F801463046FEF796F901462846E5
:10288000FEF78AF801466068FEF786F86060E36943
:102890002362A369E3616068FEF74CFB70BD000032
:1028A00010B5184C642301221749204601F091FE0F
:1028B00002221649204602F07DF8154B1B78012BA9
:1028C00000D010BD134B19685868030243EA116326
:1028D0000A02114801684068521840EB03030F498F
:1028E0000A604B600E4C0F49204602F03BF914235E
:1028F000224606210120FFF753FF054B00221A70E4
:10290000DFE700BF880B002038000020B80C002053
:10291000BA0C0020A80C0020B00C0020A00C002055
:10292000BC0C00209096000838B502680E4B9A4205
:1029300000D038BD0D490C7800250D4BC3E900458A
:102940004C7800250B4BC3E9004501240A4B1C7051
:1029500002220A4802F049F81423094A06212046B7
:10296000FFF71EFFE5E700BF00440040B80C002061
:10297000A80C0020B00C0020BA0C0020880B00200E
:102980002400002010B504460E4B18784FF47A73DB
:10299000B3FBF0F30C4A1068B0FBF3F000F0A4F8BE
:1029A00068B90F2C01D901200AE0002221464FF01E
:1029B000FF3000F057F8054B1C60002000E00120BC
:1029C00010BD00BF39000020040000203C000020A2
:1029D00008B5074A136843F010031360032000F0A2
:1029E0002FF80020FFF7CEFFFEF7C0FE002008BD45
:1029F00000200240034A1168034B1B780B4413600C
:102A0000704700BFD00C002039000020014B18682F
:102A1000704700BFD00C002038B50446FFF7F6FF22
:102A20000546B4F1FF3F02D0044B1B781C44FFF76E
:102A3000EDFF401BA042FAD338BD00BF3900002093
:102A4000074AD36823F4E0631B041B0C000200F464
:102A5000E060034343F0BF6343F40033D360704747
:102A600000ED00E030B4174BDB68C3F30223C3F181
:102A70000704042C28BF04241D1D062D18D9033B70
:102A80004FF0FF3505FA04F421EA0401994005FAF4
:102A900003F322EA0303194300280BDB0901C9B23F
:102AA00000F1604000F5614080F8001330BC7047D1
:102AB0000023E5E700F00F000901C9B2024B1954E9
:102AC000F4E700BF00ED00E014ED00E0002807DBB4
:102AD00000F01F02400901239340024A42F82030CF
:102AE000704700BF00E100E00138B0F1807F0AD2FA
:102AF000064B5860064AF02182F8231000209860A7
:102B000007221A6070470120704700BF10E000E004
:102B100000ED00E090F82130022B06D004238363FF
:102B2000002380F82030012070470268136823F0EA
:102B30000E0313600268136823F001031360036C33
:102B4000C16B012202FA03F34B6080F821200023BD
:102B500080F820301846704708B590F82130022BD5
:102B600003D004238363012008BD0268136823F0A7
:102B70000E0313600268136823F0010313600368F7
:102B8000194A934214D0143293421FD01432934204
:102B90001ED0143293421ED0143293421ED01432EF
:102BA000934202D04FF0807203E04FF4801200E0B5
:102BB00001220E4B5A60012380F82130002380F857
:102BC0002030436B6BB198470020CDE71022F0E72F
:102BD0004FF48072EDE74FF48052EAE74FF4803211
:102BE000E7E70020C0E700BF080002400000024005
:102BF000F0B482B000252C46A3E07F4FBB4210D03A
:102C000007D97E4FBB420CD007F58037BB4208D0B6
:102C100013E0A7F58017BB4203D007F57027BB422E
:102C200007D18B68002B58D0012B51D04261082569
:102C300003E0A7F58017BB42F3D0FF2E4FD88446A0
:102C4000FF2E4FD8A200DCF800300F27974023EA70
:102C5000070305FA02F21343CCF800304B6813F077
:102C6000805F6DD0664B9A6942F001029A619B6960
:102C700003F001030193019BA208971C614B53F8D9
:102C8000273004F00307BF004FF00F0C0CFA07FCCD
:102C900023EA0C0C5C4B98422AD003F580639842DF
:102CA00000F08A8003F58063984200F0878003F586
:102CB000806398421AD004231BE0CD68BDE7CD683D
:102CC0000435BAE7CD680835B7E7CD680C35B4E709
:102CD00002610825B1E70025AFE70425ADE700F163
:102CE000040CADE7A4F108029200ACE7032300E076
:102CF0000023BB4043EA0C030232424F47F8223024
:102D00004B6813F4803F5BD0404A13683343136031
:102D10004B6813F4003F59D03C4A53683343536027
:102D20004B6813F4801F57D0384A9368334393603D
:102D30004B6813F4001F55D0344AD3681E43D66045
:102D400001340B6833FA04F252D00122A24003EAA4
:102D5000020632EA0303F3D14B68122B3FF64DAF64
:102D6000122B3FF66AAF01A757F823F0232C000877
:102D7000BB2C0008C52C0008D72C00083B2C0008F1
:102D80003B2C00083B2C00083B2C00083B2C000887
:102D90003B2C00083B2C00083B2C00083B2C000877
:102DA0003B2C00083B2C00083B2C00083B2C000867
:102DB000BF2C0008CB2C000801239AE7022398E7D8
:102DC000124A136823EA06031360A1E70F4A536807
:102DD00023EA06035360A3E70C4A936823EA060339
:102DE0009360A5E7094AD36823EA0606D660A7E7F9
:102DF00002B0F0BC704700BF00002210000031108C
:102E000000100240000001400008014000040140A1
:102E10000AB10161704709040161704703685A698A
:102E200012F4806F01D1002070476FF480625A6104
:102E300000230363202280F83D2080F83E30026C9E
:102E400042F00402026480F83C30012070472DE912
:102E5000F04107460D4690461E4622E0FFF7D6FD9C
:102E6000069BC01AB04200D8DEB900233B63202283
:102E700087F83D2087F83E303A6C42F020023A64F1
:102E800087F83C3001201AE03B689C6925EA04047D
:102E9000A4B2B4FA84F46409A0450FD1B6F1FF3F9F
:102EA000DCD1C5F30743012BEED13B685C6925EA11
:102EB0000404A4B2B4FA84F46409EDE70020BDE888
:102EC000F0812DE9F04105460E46174698463DE053
:102ED0001A6842F400721A602B686FF480625A61BB
:102EE00000232B63202285F83D2085F83E302A6C94
:102EF00042F004022A6485F83C30012034E0FFF7F8
:102F000085FDA0EB0800B84200D8FFB900232B6371
:102F1000202285F83D2085F83E302A6C42F02002C0
:102F20002A6485F83C3001201EE02B689C6926EA63
:102F30000404A4B2003C18BF0124A4B12B685A6950
:102F400012F4806FC4D1B7F1FF3FD8D1C6F3074365
:102F5000012BEAD12B685C6926EA0404A4B2003C88
:102F600018BF0124E9E70020BDE8F08170B50446F0
:102F70000D46164623685B6913F0800F1CD120466E
:102F8000FFF74CFFD0B9B5F1FF3FF3D0FFF73EFD9F
:102F9000801BA84201D8002DECD1002323632022FE
:102FA00084F83D2084F83E30226C42F020022264F6
:102FB00084F83C30012000E0002070BD0120FCE7D7
:102FC0002DE9F04385B004460D4691461F46DDF8D5
:102FD00030800D9E0368196841F480711960009675
:102FE000434600224FF00111FFF731FF60B923681B
:102FF00005F0FE051D613346424626492046FFF78F
:1030000060FF68B1012008E023681B6813F4807F2B
:1030100002D04FF400732364032005B0BDE8F083B1
:103020000023039323685A6903929B690393039BCC
:10303000324641462046FFF799FF30B9012F0FD1A4
:1030400023685FFA89F61E61E7E7236C042B01D041
:103050000120E2E72268136843F400731360F7E786
:1030600023684FEA19221A61324641462046FFF78B
:103070007DFF20B923685FFA89F61E61CDE7236CD6
:10308000042B01D00120C8E72268136843F40073C1
:103090001360F7E70200010070B504460D461646BE
:1030A00023685B6913F0040F1CD12046FFF7B6FEBE
:1030B000D0B9B5F1FF3FF3D0FFF7A8FC801BA842C1
:1030C00001D8002DECD100232363202284F83D2079
:1030D00084F83E30226C42F02002226484F83C30B6
:1030E000012000E0002070BD0120FCE7002800F076
:1030F000CC80F8B5044690F83D30002B77D02423DF
:1031000084F83D302268136823F0010313602268BD
:10311000136843F4004313602268136823F40043E8
:10312000136000F083FC62685A4B9A4264D85A4B91
:1031300098428CBF00230123002B40F0A880574DFC
:10314000A5FB0035AF0C2668716821F03F0141EA0C
:103150009541716021680B6A23F03F0365684D4A11
:1031600095424FD87A1C13430B622568E96921F414
:103170004F4121F0FF016368464A93424CD8013821
:103180005B00B0FBF3F0013040F6FC73184278D0DE
:10319000C0F30B030B43EB6121680B6823F0C00302
:1031A000E269206A024313430B6021688B6823F4B1
:1031B000034323F0FF032269E068024313438B605B
:1031C0002168CB6823F0FF036269A06902431343BF
:1031D000CB602268136843F0010313600020206471
:1031E000202384F83D30206384F83E00F8BD80F849
:1031F0003C30FEF7E1F982E7294B98428CBF00236F
:10320000012399E74FF4967202FB07F2254DA5FBC7
:10321000025292090132A6E7A268BAB9461E03EB30
:103220004307B6FBF7F60136C6F30B06B6FA86F689
:10323000760946BBC2B9421E03EB4303B2FBF3F26D
:103240000132C2F30B0242F40043A3E7461E03EB34
:10325000830707EB8707B6FBF7F60136C6F30B06C5
:10326000B6FA86F67609E4E7421E03EB830303EB26
:103270008303B2FBF3F20132C2F30B0242F4404388
:1032800088E7042386E7012384E7012070470120B3
:10329000ACE700BFA08601007F841E0083DE1B43D5
:1032A000FF083D00D34D62102DE9F04383B0044682
:1032B0000F46904699460C9EFFF7A8FB054694F8EA
:1032C0003D00C0B2202803D0022003B0BDE8F08347
:1032D0000095192301224B492046FFF7B8FD00282D
:1032E00040F0898094F83C30012B00F08680012367
:1032F00084F83C3023681A6812F0010F03D11A6871
:1033000042F001021A602268136823F4006313601C
:10331000212384F83D30402384F83E300023236489
:103320000A9B6362BDF82C306385638D2385364B21
:10333000E362019500964B46424639462046FFF728
:103340003FFE00285BD1238D002B35D02A46314625
:103350002046FFF70BFE20BB626A236812781A61D1
:10336000616A4B1C6362228D013A92B22285638DA1
:103370009BB2013B9BB263852368586910F0040F30
:10338000E1D0002ADFD04A781A61636A01336362B0
:10339000238D013B2385638D9BB2013B9BB26385EB
:1033A000D1E7236C042B01D001208EE7226813683B
:1033B00043F400731360F7E72A4631462046FFF7CF
:1033C0006BFE50B1236C042B01D001207DE72268F5
:1033D000136843F400731360F7E72268136843F43B
:1033E00000731360202384F83D30002384F83E30BE
:1033F00084F83C3069E7022067E7022065E7012096
:1034000063E700BF020010000000FFFF82B0084B1E
:103410001B68084AA2FB03235B0A00FB03F301932A
:1034200000BF019B5A1E0192002BF9D102B07047D8
:1034300004000020D34D6210002800F0F18170B527
:1034400082B00446036813F0010F2CD0AA4B5B68CE
:1034500003F00C03042B1DD0A74B5B6803F00C0397
:10346000082B12D06368B3F5803F41D0002B55D1B3
:1034700003F1804303F504331A6822F480321A60A2
:103480001A6822F480221A6037E09B4B5B6813F4C1
:10349000803FE7D0984B1B6813F4003F03D063686C
:1034A000002B00F0BF81236813F0020F75D0924B00
:1034B0005B6813F00C0F5FD08F4B5B6803F00C035D
:1034C000082B54D02369002B00F089808B4B0122FC
:1034D0001A60FFF79BFA0546874B1B6813F0020F33
:1034E00074D1FFF793FA401B0228F5D903209EE11F
:1034F000814A136843F480331360636843B3FFF772
:1035000085FA05467C4B1B6813F4003FCBD1FFF7CF
:103510007DFA401B6428F5D9032088E1B3F5A02F7C
:1035200009D0754B1A6822F480321A601A6822F4A6
:1035300080221A60E1E703F18043A3F53C331A6867
:1035400042F480221A601A6842F480321A60D4E78A
:10355000FFF75CFA0546684B1B6813F4003FA2D0E6
:10356000FFF754FA401B6428F5D903205FE1624B52
:103570005B6813F4803FA5D15F4B1B6813F0020F0B
:1035800003D02369012B40F04F815B4A136823F07D
:10359000F803616943EAC1031360236813F0080F5D
:1035A00032D0A369002B45D0554B01221A60FFF79A
:1035B0002DFA0546504B5B6A13F0020F21D1FFF73D
:1035C00025FA401B0228F5D9032030E14A4A136846
:1035D00023F0F803616943EAC1031360DDE7474B59
:1035E00000221A60FFF712FA0546434B1B6813F0DE
:1035F000020FD2D0FFF70AFA401B0228F5D90320A8
:1036000015E10120FFF702FF236813F0040F00F01B
:103610009780394BDB6913F0805F1DD1364BDA6937
:1036200042F08052DA61DB6903F080530193019B21
:10363000012512E0324B00221A60FFF7E7F9054638
:103640002D4B5B6A13F0020FDED0FFF7DFF9401B52
:103650000228F5D90320EAE000252A4B1B6813F461
:10366000807F11D0E368012B22D0002B38D103F1E9
:10367000804303F504331A6A22F001021A621A6ABF
:1036800022F004021A6218E01E4A136843F48073A1
:103690001360FFF7BBF906461A4B1B6813F4807FD3
:1036A000E0D1FFF7B3F9801B6428F5D90320BEE011
:1036B000114A136A43F001031362E36873B3FFF71F
:1036C000A5F906460C4B1B6A13F0020F37D1FFF722
:1036D0009DF9801B41F288339842F3D90320A6E07C
:1036E000052B11D0044B1A6A22F001021A621A6AE1
:1036F00022F004021A62E0E7001002400000424299
:1037000080044242007000404D4B1A6A42F00402AD
:103710001A621A6A42F001021A62CEE7FFF776F9DE
:103720000646474B1B6A13F0020F08D0FFF76EF9ED
:10373000801B41F288339842F3D9032077E0E5B942
:10374000E369002B72D03E4A526802F00C02082A4C
:1037500056D0022B17D03B4B00221A60FFF756F9C8
:103760000446374B1B6813F0007F47D0FFF74EF934
:10377000001B0228F5D9032059E0314AD36923F010
:103780008053D361DCE72F4B00221A60FFF73EF92C
:1037900005462B4B1B6813F0007F06D0FFF736F968
:1037A000401B0228F5D9032041E0236AB3F5803F8E
:1037B0001AD023494B6823F47413226A606A0243C7
:1037C00013434B601F4B01221A60FFF71FF9044699
:1037D0001B4B1B6813F0007F0ED1FFF717F9001B7E
:1037E0000228F5D9032022E0154A536823F4003358
:1037F000A1680B435360DCE7002018E0002016E0CE
:10380000012B16D00E4B5B6803F48031226A914283
:1038100011D103F47013626A93420ED1002006E0C6
:1038200001207047012002E0012000E0002002B0EA
:1038300070BD0120FBE70120F9E70120F7E700BF99
:10384000001002406000424286B0164B0FCB0DF1D3
:10385000180C0CE90F0040F20123ADF80430124BB4
:103860005B6803F00C02082A02D0104806B07047CB
:10387000C3F38342624412F8102C13F4803F0CD03F
:10388000094B5B68C3F34043634413F8143C074897
:1038900000FB02F0B0FBF3F0E8E7054800FB02F0A4
:1038A000E4E700BF989600080010024000127A007A
:1038B00000093D00002800F0A08070B50D460446C8
:1038C000524B1B6803F007038B420BD24F4A13681D
:1038D00023F007030B431360136803F007038B42C5
:1038E00040F08D80236813F0020F17D013F0040FFF
:1038F00004D0474A536843F4E0635360236813F0ED
:10390000080F04D0424A536843F460535360404A5E
:10391000536823F0F003A1680B435360236813F04E
:10392000010F31D06368012B20D0022B25D0384AFB
:10393000126812F0020F64D035494A6822F003027F
:1039400013434B60FFF762F80646314B5B6803F0A8
:103950000C036268B3EB820F16D0FFF757F8801B99
:1039600041F288339842F0D9032045E0284A126892
:1039700012F4003FE0D101203EE0254A126812F027
:10398000007FD9D1012037E0204B1B6803F00703EB
:10399000AB420AD91D4A136823F007032B43136077
:1039A000136803F00703AB422DD1236813F0040F13
:1039B00006D0174A536823F4E063E1680B43536071
:1039C000236813F0080F07D0114A536823F460539B
:1039D000216943EAC1035360FFF736FF0C4B5B6874
:1039E000C3F303130B4AD35CD8400B4B18600B4B4B
:1039F0001868FEF7C7FF002070BD01207047012046
:103A0000FAE70120F8E70120F6E700BF00200240B6
:103A100000100240588E0008040000203C000020E6
:103A2000014B1868704700BF0400002008B5FFF77D
:103A3000F7FF044B5B68C3F30223034AD35CD8400F
:103A400008BD00BF00100240688E000808B5FFF7EF
:103A5000E7FF044B5B68C3F3C223034AD35CD8403F
:103A600008BD00BF00100240688E000870B4036AF1
:103A700023F001030362036A4668826922F073023D
:103A80000C6844EA020523F002028B6813430D4CD4
:103A9000A04209D00B4CA0420DD0466085614A6817
:103AA0004263036270BC704723F00803CA68134383
:103AB00023F00403EEE726F440764A6932438E6928
:103AC0001643EAE7002C014030B4036A23F4807304
:103AD0000362036A4568C26922F073020C682243DC
:103AE00023F400738C6843EA04230F4CA04209D0EE
:103AF0000D4CA0420ED04560C2614A68C2630362A9
:103B000030BC704723F40063CC6843EA042323F4F9
:103B10008063EDE725F440554C6945EA04158C694E
:103B200045EA0415E7E700BF002C014030B4036A02
:103B300023F480530362036A4468C26922F4E642B4
:103B40000D6842EA052223F400538D6843EA0533E9
:103B5000074DA84206D04460C2614A68026403620D
:103B600030BC704724F480444D6944EA8514F2E780
:103B7000002C014030B4036A056A25F00105056296
:103B8000846924F0F00444EA021423F00A030B438E
:103B90008461036230BC704730B4056A25F01005BB
:103BA00005628469036A24F4704444EA023423F011
:103BB000A00343EA01138461036230BC7047836849
:103BC00023F070030B4343F007038360704700004A
:103BD00090F83D30DBB2012B27D1022380F83D3035
:103BE0000268D36843F00103D3600368114A93422B
:103BF00010D0B3F1804F0DD0A2F59432934209D08A
:103C000002F58062934205D01A6842F001021A6000
:103C1000002070479A6802F00702062A07D01A6847
:103C200042F001021A600020704701207047002016
:103C3000704700BF002C01407047704770477047C5
:103C400010B5044603681A6912F0020F11D0DA6841
:103C500012F0020F0DD06FF002021A6101230377F8
:103C600003689B6913F0030F70D0FFF7E6FF002392
:103C7000237723681A6912F0040F12D0DA6812F061
:103C8000040F0ED06FF004021A6102232377236819
:103C90009B6913F4407F5FD02046FFF7CEFF0023DF
:103CA000237723681A6912F0080F12D0DA6812F02D
:103CB000080F0ED06FF008021A61042323772368DF
:103CC000DB6913F0030F4ED02046FFF7B6FF002349
:103CD000237723681A6912F0100F12D0DA6812F0F5
:103CE000100F0ED06FF010021A610823237723689B
:103CF000DB6913F4407F3DD02046FFF79EFF002391
:103D0000237723681A6912F0010F03D0DA6812F0E2
:103D1000010F36D123681A6912F0800F03D0DA68D8
:103D200012F0800F34D123681A6912F0400F03D0CB
:103D3000DA6812F0400F32D123681A6912F0200FAE
:103D400003D0DA6812F0200F30D110BDFFF774FFF6
:103D50002046FFF773FF8AE72046FFF76DFF2046F6
:103D6000FFF76CFF9BE72046FFF766FF2046FFF753
:103D700065FFACE72046FFF75FFF2046FFF75EFFD9
:103D8000BDE76FF001021A612046FEF76BFBC1E749
:103D90006FF080021A61204600F025FBC3E76FF048
:103DA00040021A612046FFF74AFFC5E76FF0200284
:103DB0001A61204600F016FBC7E7000003681B4AA3
:103DC00090420AD0B0F1804F07D0A2F594329042D1
:103DD00003D002F58062904203D123F070034A6859
:103DE0001343124A90420AD0B0F1804F07D0A2F597
:103DF0009432904203D002F58062904203D123F4C2
:103E00004073CA68134323F080034A691343036075
:103E10008B68C3620B688362044B984202D0012313
:103E2000436170470B690363F9E700BF002C014051
:103E300040B310B5044690F83D30F3B1022384F846
:103E40003D30214651F8040BFFF7B8FF012384F8F9
:103E5000463084F83E3084F83F3084F8403084F8AF
:103E6000413084F8423084F8433084F8443084F898
:103E7000453084F83D30002010BD80F83C30FDF71F
:103E80000FFEDBE70120704740B310B5044690F801
:103E90003D30F3B1022384F83D30214651F8040B44
:103EA000FFF78CFF012384F8463084F83E3084F815
:103EB0003F3084F8403084F8413084F8423084F850
:103EC000433084F8443084F8453084F83D30002095
:103ED00010BD80F83C30FDF7C5FDDBE701207047E1
:103EE000002853D0F8B50D46044690F83D30002B1D
:103EF00047D0022384F83D302268936823F480433E
:103F000023F007039360214651F8040BFFF756FF97
:103F100021688A688E690F6A2868104326F4407603
:103F200026F00306AA68AB6942EA0323334323F46D
:103F30007C4323F0FC03EE68EA6946EA02261E434E
:103F40002A6A13032A6943EA0213334327F022073C
:103F50006A686D6942EA05123A43886021688B619C
:103F600023681A62012384F8463084F83E3084F8CE
:103F70003F3084F8423084F8433084F83D300020EC
:103F8000F8BD80F83C30FDF709FDB2E7012070472D
:103F900030B4036A23F010030362036A4468826941
:103FA00022F4E6420D6842EA052223F020038D68E0
:103FB00043EA05130E4DA84209D00D4DA8420ED07C
:103FC000446082614A688263036230BC704723F0B8
:103FD0008003CD6843EA051323F04003EDE724F4A2
:103FE00040644D6944EA85048D6944EA8504E7E745
:103FF000002C014038B590F83C30012B60D00446CD
:104000000D46012380F83C300C2A1AD8DFE802F074
:10401000071919191D1919193119191944000068BE
:10402000FFF724FD2268936943F008039361226837
:10403000936923F0040393612268936929690B4310
:104040009361002084F83C0038BD0068FFF7A0FFB2
:104050002268936943F4006393612268936923F4AF
:104060008063936122689369296943EA012393611C
:10407000E7E70068FFF728FD2268D36943F00803EB
:10408000D3612268D36923F00403D3612268D36922
:1040900029690B43D361D4E70068FFF747FD226825
:1040A000D36943F40063D3612268D36923F4806346
:1040B000D3612268D369296943EA0123D361C0E748
:1040C0000220C1E710B4846824F47F4442EA03224A
:1040D0000A432243826010BC704790F83C30012BA9
:1040E00066D010B50446012380F83C30022380F8E6
:1040F0003D300268936823F47F4323F07703936095
:104100000B68602B40D022D8402B47D00BD9502BC6
:104110000ED1CA6849680068FFF72CFD502120685D
:10412000FFF74DFD04E0202B0CD008D9302B09D02F
:10413000012384F83D30002084F83C0010BD0BB111
:10414000102BF5D119462068FFF739FDF0E7702BE9
:104150000ED0B3F5005FEBD1CB684A688968006880
:10416000FFF7B0FF2268936843F480439360DFE772
:10417000CB684A6889680068FFF7A4FF22689368E3
:1041800043F077039360D3E7CA6849680068FFF794
:1041900003FD60212068FFF712FDC9E7CA6849687E
:1041A0000068FFF7E7FC40212068FFF708FDBFE744
:1041B0000220704710B401F01F01012303FA01F43B
:1041C000036A23EA04030362036A02FA01F10B4360
:1041D000036210BC7047000010B50446084651BB8E
:1041E00094F83E30DBB2013B18BF0123002B5BD1BA
:1041F000002839D1022384F83E300122014620688C
:10420000FFF7D8FF23682A4A93423DD02368284A03
:1042100093423ED0B3F1804F3BD0A2F5943293420B
:1042200037D002F58062934233D01A6842F001021F
:104230001A60002039E0042908D008290DD094F82C
:104240004130DBB2013B18BF0123CFE794F83F3088
:10425000DBB2013B18BF0123C8E794F84030DBB262
:10426000013B18BF0123C1E7042805D0082807D067
:10427000022384F84130C0E7022384F83F30BCE7D2
:10428000022384F84030B8E75A6C42F400425A6482
:10429000BCE79A6802F00702062A07D01A6842F0C3
:1042A00001021A60002000E0012010BD0020FCE7A0
:1042B000002C014070B5044690F83E00C0B294F85E
:1042C0003F3094F84220D2B294F843500E46B1B930
:1042D000012846D1012A45D1022384F83E3084F8D2
:1042E000423066B3042E36D0012200212068FFF749
:1042F00061FF012204212068FFF75CFF24E0DBB2AC
:10430000EDB2042911D0012831D1012B2AD1012A83
:104310002FD1012D2FD1022384F83E3084F83F3075
:1043200084F8423084F84330DBE7012B1BD1012DA8
:104330001BD1022384F83F3084F84330D1E70122B7
:1043400000212068FFF736FF2268136843F001035D
:104350001360002006E0012204212068FFF72AFFF5
:10436000F2E7012070BD0120FCE71846FAE70120C2
:10437000F8E71846F6E71046F4E7000090F83C30FE
:10438000012B2BD030B4012380F83C30022380F87D
:104390003D3003685C689D6824F070040A6822431D
:1043A0005A6003680E4A93420AD0B3F1804F07D097
:1043B000A2F59432934203D002F58062934204D175
:1043C00025F080054A6815439D60012380F83D3043
:1043D000002380F83C30184630BC704702207047FC
:1043E000002C0140704770470268D36823F4907333
:1043F000D3600268536923F001035361036B012BFF
:1044000005D0202380F83E30002303637047026804
:10441000D36823F01003D360F3E790F83D30DBB2AC
:10442000212B01D0022070478368B3F5805F17D03D
:10443000036A5A1C02621A7803685A60C38C9BB2E2
:10444000013B9BB2C3844BB90268D36823F080035D
:10445000D3600268D36843F04003D3600020704704
:104460000369002BE4D1036A1B880268C3F30803C5
:104470005360036A02330362E0E7000010B50446AC
:104480000268136923F44053C1680B4313618368C6
:104490000269134342691A430168CB6823F4B0539D
:1044A00023F00C031343CB600268536923F4407379
:1044B00081690B4353610268124B9A421FD0FFF788
:1044C000B5FA00EB800303EB830362689200B3FB51
:1044D000F2F20D48A0FB02314909642303FB1123CA
:1044E0001B013233A0FB03235B0903F0F00202EB54
:1044F000011203F00F03216813448B6010BDFFF716
:10450000A5FADEE7003801401F85EB512DE9F8439D
:1045100005460F4616469946DDF820802C6824682B
:1045200037EA04030CBF01240024B4421FD1B8F1C0
:10453000FF3FF3D0B8F1000F05D0FEF767FAA0EB0C
:1045400009004045EAD92A68D36823F4D073D360C0
:104550002A68536923F001035361202385F83D3015
:1045600085F83E30002385F83C30032000E0002031
:10457000BDE8F88358B310B5044690F83D300BB34E
:10458000242384F83D302268D36823F40053D36099
:104590002046FFF773FF2268136923F490431361E9
:1045A0002268536923F02A0353612268D36843F4D5
:1045B0000053D36000202064202384F83D3084F829
:1045C0003E3010BD80F83C30FDF716FBD8E70120E7
:1045D00070472DE9F04182B01E4690F83D30DBB2C5
:1045E000202B54D104460D469046002953D0002A72
:1045F00053D090F83C30012B51D0012380F83C304F
:1046000000230364212380F83D30FEF7FFF90746BD
:10461000A4F82480A4F82680A368B3F5805F05D0B1
:104620004FF00008002384F83C3012E0236913B1F6
:104630004FF00008F6E7A8460025F3E738F8023BFC
:104640002268C3F308035360E28C92B2013A92B23B
:10465000E284E38C9BB273B100963B46002280213A
:104660002046FFF753FFE0B9002DE7D015F8012BE6
:1046700023685A60E8E700963B4600224021204626
:10468000FFF744FF78B9202384F83D3000E0022092
:1046900002B0BDE8F0810120FAE70120F8E702202E
:1046A000F6E70320F4E70320F2E7704708B5016856
:1046B000CA6822F04002CA60202280F83D20FFF73D
:1046C000F4FF002008BD704708B5406A0023C38589
:1046D000C384FFF7F8FF08BD704790F83E30DBB2A7
:1046E000222B60D18368B3F5805F46D0826AB3F530
:1046F000805F04D0002B4DD10369002B4AD10368A1
:104700005B681370836A01338362C38D9BB2013B84
:104710009BB2C385002B48D100B583B00268D36833
:1047200023F02003D3600268D36823F48073D3603E
:104730000268536923F001035361202380F83E305F
:10474000036B012B2CD1002303630268D36823F091
:104750001003D36003681A6812F0100F06D000220D
:1047600001921A6801925B680193019B818DFFF7AA
:10477000B3FF002003B05DF804FB0269002AB5D145
:10478000826A03685B68C3F308031380836A023399
:104790008362BAE703685B6803F07F031370B1E7D5
:1047A000FEF7C2F8E5E702207047002070470000DE
:1047B00030B583B0044602681368D068516913F0BD
:1047C0000F0505D113F0200F02D010F0200F19D1E2
:1047D0002DB111F0010119D110F4907F16D1216B88
:1047E000012975D013F0800F03D010F0800F40F036
:1047F000D78013F0400F03D010F0400F40F0D4806A
:1048000003B030BD2046FFF768FFF9E713F0010F52
:1048100006D010F4807F03D0226C42F001022264A3
:1048200013F0040F04D019B1226C42F0020222648A
:1048300013F0020F04D019B1226C42F0040222647A
:1048400013F0080F07D010F0200F00D119B1226C1F
:1048500042F008022264226C002AD1D013F0200F0B
:1048600002D010F0200F21D123685B6903F04003D0
:10487000226C12F0080F00D123B32046FFF7B4FDDD
:1048800023685A6912F0400F18D05A6922F040028A
:104890005A61A36B73B1464A5A63A06BFEF75CF989
:1048A0000028ADD0A06B436B9847A9E72046FFF7DF
:1048B00014FFD9E72046FFF706FFA1E72046FFF7E0
:1048C00002FF9DE72046FFF7FEFE0023236497E7E3
:1048D00013F0100F86D010F0100F83D00023019337
:1048E0001368019353680193019B536913F0400FC0
:1048F00032D0A16B0B685B689BB2002B80D0A08D7F
:1049000098427FF67DAFE3858B69202B08D1A18D7E
:10491000E38D9BB2C91A89B22046FFF7DDFE6FE72F
:10492000D36823F48073D3602268536923F00103B2
:1049300053612268536923F040035361202384F8B4
:104940003E30002323632268D36823F01003D36032
:10495000A06BFEF7DFF8DAE7A18DE38D9BB2C91AF1
:1049600089B2E38D9BB2002B3FF44AAF00293FF49C
:1049700047AFD36823F49073D3602268536923F060
:1049800001035361202384F83E300023236322680F
:10499000D36823F01003D3602046FFF79DFE2FE776
:1049A0002046FFF73AFD2BE72046FFF77FFE27E77B
:1049B000C9460008034681628285C28500201864CA
:1049C000222283F83E2083F83C001968CA6842F42A
:1049D0008072CA6019684A6942F001024A611A6825
:1049E000D36843F02003D360704708B590F83E3099
:1049F000DBB2202B0DD171B17AB190F83C30012B94
:104A00000DD0012380F83C3000230363FFF7D2FF71
:104A100000E0022008BD0120FCE70120FAE70220A7
:104A2000F8E700000C480D490D4A002302E0D45875
:104A3000C4500433C4188C42F9D30A4A0A4C0023E8
:104A400001E013600432A242FBD3FCF703FF00F045
:104A500015F8FCF717FE704700000020F009002051
:104A60004C990008F0090020300D0020FEE70000FE
:104A7000014B1868704700BF4000002070B50D4E14
:104A80000D4D761BB61006D0002455F8043B0134BA
:104A90009847A642F9D1094E094D04F0CFF9761B8B
:104AA000B61006D0002455F8043B01349847A642BE
:104AB000F9D170BD40990008409900084899000854
:104AC00040990008F0B4860746D0541E002A3CD016
:104AD0000346CAB201E0013C37D303F8012B9D071E
:104AE000F9D1032C2AD9CDB245EA05250F2C45EA88
:104AF000054534D9A4F1100222F00F0C03F1200770
:104B00001609674403F1100242E9045542E90255CF
:104B10001032BA42F8D1721C14F00C0F03EB0212DF
:104B200004F00F0613D0331F23F0030304331344A0
:104B300042F8045B9342FBD106F003042CB1CAB2E5
:104B40001C4403F8012B9C42FBD1F0BC7047344657
:104B50001346002CF3D1F8E714460346C1E71A4682
:104B60002646E0E70EB4014630B56FF000449CB035
:104B70001FAB0B4853F8042B0A4D029106910068B5
:104B800002A90193CDE90445079400F03BF8002207
:104B9000029B1A701CB0BDE8304003B0704700BFE4
:104BA000400000200802FFFF20F0030110F0030086
:104BB000C0F1000051F8043B00F1040C4FEACC0CAA
:104BC0006FF000021CBF22FA0CF213434FF0010CED
:104BD0004CEA0C2C4CEA0C4CA3EB0C0222EA03022C
:104BE00012EACC1204BF51F8043B0430F4D0C2F1F5
:104BF000000102EA0102B2FA82F2C2F11F0200EBE6
:104C0000D20070472DE9F04FD7B08B4617460E9370
:104C1000814602F0F3FE036818461893FFF7C4FFBD
:104C2000BBF80C3017901D0604D5DBF81030002BB4
:104C300000F0DF87002300210022CDE92B33CDE9EE
:104C40001A33CDE91C33139319930A932DAB98466D
:104C50002A933B78DA46CDE91412002B00F0A481A8
:104C60003C4604E014F8013F002B00F0FD80252BAA
:104C7000F8D1E51B40F0FB802378002B00F09481F5
:104C800000230B938DF88B3007934FF0FF3366783A
:104C900004F1010B20212B2409930BF1010BA6F148
:104CA00020035A2B00F2FF80DFE813F0BC02FD0066
:104CB000FD00B502FD00FD00FD009102FD00FD00BC
:104CC0006A00E702FD003402CD02FD00C6025B006F
:104CD0005B005B005B005B005B005B005B005B00FC
:104CE000FD00FD00FD00FD00FD00FD00FD00900148
:104CF000FD00F7017C00900190019001FD00FD0096
:104D0000FD00FD008A02FD00FD00A900FD00FD0080
:104D1000FD000B02FD003B02FD00FD008107FD00D0
:104D2000FD00FD00FD00FD00FD00FD00FD00900107
:104D3000FD00F70180009001900190018002800049
:104D40007500FD007602FD005E02AD004C027500AC
:104D5000FD000B0272005B07FD00FD005F07FD0018
:104D600072000022A6F130031BF8016B02EB8202F5
:104D700003EB4202A6F13003092BF5D90B928EE723
:104D80000E9B53F8042B002A0B920E93C0F2BF81A6
:104D90009BF8006081E7079B9BF8006043F02003CD
:104DA00007937AE7079B43F010030793079B9C0642
:104DB00040F162810E9B073323F007031946F1E8A7
:104DC000022314461D460E91002A73F10003C0F21F
:104DD000AB85099B0133079B00F0148423F080030B
:104DE00054EA0502089340F00E84099A002A40F024
:104DF0000F840793002356AF09930C936BE2079B34
:104E000043F010030793079B9A0640F126810E9BFF
:104E1000073323F00703F3E802450E93079B23F4BF
:104E200080630893002300228DF88B20099A114695
:104E3000013100F03182089921F08001079154EA94
:104E4000050140F02782002A40F07D83002BD1D15C
:104E5000089B13F001030C9300F0908530230DF2B2
:104E600057178DF8573136E2E51B00F09D80DDE9DC
:104E70002B3201332A44072BC8E90075CDE92B32C8
:104E800006DC08F108080A9A23782A440A92F4E614
:104E9000514648462AAA03F0BBFE002841F0CE83C3
:104EA0000DF1B408EFE7002E7ED0002301211A4651
:104EB00008918DF8F4608DF88B300D93099312935F
:104EC000169310930C913DAF079B13F0020302D091
:104ED000089902310891079911F084010F9105D1C9
:104EE0000B9908980D1A002D00F34B832C9C72B17E
:104EF00001202B9A044402440DF18B01072ACDE9CD
:104F00002B24C8E9001000F3CD8308F108086BB129
:104F100002212B9B0C44013323AA072BCDE92B3410
:104F2000C8E9002100F3CC8308F108080F9B802B0F
:104F300000F03482099B0C9A9D1A002D00F36E82BA
:104F4000079BD90500F1D5812B9B0C9A01331444A2
:104F5000072BC8E900722C942B9300F3978308F178
:104F60000808079B590705D50B9B089A9D1A002D29
:104F700000F3B283DDE90A3208998A42ACBF9B187C
:104F80005B180A93002C40F07D8200232B930D9B2D
:104F90001BB148460D9902F02BFC5F460DF1B40899
:104FA0003B78002B7FF45CAE2C9BD346002B41F06A
:104FB0004B82BBF80C3013F0400F0A9B18BF4FF028
:104FC000FF330A930A9857B0BDE8F08F0E9B073362
:104FD00023F007031946F1E80223CDE91423DDE9A4
:104FE000143424F000441D4618460E914FF0FF3251
:104FF0002146A44BFCF726FA002840F0D984284625
:1050000021464FF0FF329F4BFCF7FEF9002840F09D
:10501000CF84DDE9140100220023FCF7EBF900281E
:1050200041F00E809DF88B2003200021964F974B76
:1050300008900D91472EC8BF1F46079C0C9024F086
:10504000800407940991129116911091002A3FF45F
:105050003BAF089B0133089336E7079BDB0600F163
:105060009C84079B5F0640F1B2870E9B002553F896
:10507000044B0E93A4B2D1E6079BD80600F16885D5
:10508000079B590640F1BE870E9B53F8044B24B290
:10509000E5170E9322462B4696E6002101240E9B2F
:1050A0000A4653F8040B0894CDE90D138DF88B10C4
:1050B0008DF8F40009911291169110910C943DAF66
:1050C00002E700250E9C8DF88B5054F8047B002FCE
:1050D00000F09F85099A1346013300F07087294636
:1050E000384602F041FF0D90002801F0B9802B46B0
:1050F0000D9A0995D21B0C9222EAE27208920E9444
:105100009DF88B200D931293169310939EE70B9BA3
:105110005B420B93079B9BF8006043F004030793EB
:10512000BBE5079B43F010030893089B9D0640F1E5
:10513000EA830E9B073323F00703F3E802450E933F
:10514000012370E647F630020E9B079953F8044B93
:1051500041F002010E934E4B00251993782602234D
:105160000891ADF88C205EE6079B9D0600F108844F
:10517000079BDC0600F1E186079B580600F1958746
:10518000079B990540F1D9860E9B0A9953F8042B89
:105190005F4611700E9303E79BF80060079B6C2E2F
:1051A00000F0088543F01003079376E59BF8006054
:1051B000079B682E00F0078543F0400307936CE5DA
:1051C000079B9BF8006043F00803079365E548469A
:1051D00002F014FC436818461C93FFF7E5FC0346F5
:1051E00048461D461D9302F009FC826820211A9250
:1051F000002D3FF4CDAD1A9B002B3FF4C9AD1A9B97
:105200001B78002B3FF4C4AD079B9BF8006043F470
:105210008063079341E5079B9BF8006043F001031F
:1052200007933AE59DF88B30002B7FF4B1AD9BF8E6
:1052300000608DF88B1030E5079B9BF8006043F011
:105240008003079329E55A4612F8016B2A2E01F0D4
:105250005182A6F13003092B934698BF002201F238
:10526000EF801BF8016B02EB820203EB4202A6F116
:105270003003092BF5D9099211E59BF800608DF8F0
:105280008B400AE5FFFFEF7FB0960008B496000858
:10529000C0960008079A0892012B00F0B481022BF7
:1052A00000F0598156AFE20842EA4572E90804F07D
:1052B00007030D461446303354EA05013A4607F811
:1052C000013DF0D108990846C00700F1B88256ABFD
:1052D000DB1B07910C93002309990D9312931693EE
:1052E00010930C9B9DF88B208B42B8BF0B46089304
:1052F000ACE6652E40F3D880DDE9140100220023DE
:10530000FCF76EF8002800F01E8201212B9BC54A95
:105310000B440C44072BCDE92B34C8E9002100F3E2
:10532000BB8508F10808249B139A934280F22183DD
:105330002B9B179A013318991444072BC8E90012C4
:105340002C942B9300F3488408F10808139B5D1EEE
:10535000002D7FF706AE102D40F3C785B24F102603
:105360002B9B0F9705E008F10808103D102D40F326
:10537000BF8501331034072BCDE92B34C8E9007603
:10538000F1DD514648462AAA03F042FC002840F0CD
:105390008180DDE92B340DF1B408E6E70B9B089A18
:1053A0009D1A002D7FF7C6AD102D41F369809E48F0
:1053B0002146102304462B9A0F9004E0103D102D37
:1053C00008F1080817DD01321031072ACDE92B2139
:1053D000C8E90043F2DD514648462AAA03F018FC0A
:1053E000002857D1DDE92B21103D102D4FF010037F
:1053F0000DF1B408E7DC0C4601320F9B2C44072A60
:10540000CDE92B24C8E9003500F38A85099B0C9A65
:1054100008F108089D1A002D7FF792AD102D40F37A
:105420000A8681482146102304462B9A0F9004E0F7
:10543000103D102D08F1080816DD01321031072A41
:10544000CDE92B21C8E90043F2DD514648462AAA9E
:1054500003F0DEFBF0B9DDE92B21103D102D4FF0FC
:1054600010030DF1B408E8DC0C4601320F9B2C440C
:10547000072ACDE92B24C8E9003500F3378208F16B
:1054800008085DE5514648462AAA03F0C1FB0028FA
:105490003FF47BADD3460D9B002B3FF48AAD4846CD
:1054A0000D9902F0A5F984E5139B012B40F3D581FA
:1054B00001232B9D1C441D44072D2C94C8F800701B
:1054C0002B95C8F8043000F33A8208F10808179BBE
:1054D0000135189A1C44072DCDE92B54C8E9002347
:1054E00000F33A8208F108080023DDE914010022E4
:1054F000FBF776FF139B002840F0CD81013B01357F
:1055000001371C44072DCDE92B54C8F80070C8F8AA
:10551000043000F3DC8408F108081B9A01351444B8
:1055200026AB072DCDE92B54C8E900327FF717AD24
:10553000514648462AAA03F06BFB0028AAD12C9CAE
:105540000DF1B4080DE5012B00F0CA87022B079B73
:1055500008937FF4A7AE199856AF230943EA057361
:10556000290904F00F020D461C46835C07F8013D33
:1055700054EA0503F1D1089B079356ABDB1B0C9350
:10558000A9E6102D40F36886DDE92B211E930B461A
:105590003946102437465646CA46894604E0103D2F
:1055A000102D08F1080817DD013220491033072AB1
:1055B000CDE92B23C8E90014F1DD314650462AAA73
:1055C00003F026FB002840F05884DDE92B23103D32
:1055D000102D0DF1B408E7DC4846D146B2463E46F0
:1055E000074619461E9B4C1901321049072ACDE97E
:1055F0002B24C8E9001500F31F849DF88B2008F1C7
:10560000080874E40893002D08BF0A2C80F0D083AA
:10561000089B3034079301238DF857410C930DF20A
:10562000571758E6F096000804970008F49600080B
:10563000514648462AAA03F0EBFA00287FF42AAF25
:10564000249A2C9C0DF1B408002A40F07F84079B1B
:10565000139A03F0010313433FF483AC2B9B179A77
:10566000013318991444072BC8E900122C942B938A
:1056700000F3248508F10808139A01331444072B1A
:10568000CDE92B34C8E900727FF769AC5146484632
:105690002AAA03F0BDFA00287FF4FCAE2C9C0DF181
:1056A000B4085EE4514648462AAA1E9303F0B0FAB5
:1056B00000287FF4EFAE2C9C1E9B0DF1B40826E46D
:1056C000514648462AAA03F0A3FA00287FF4E2AE26
:1056D0002C9C0DF1B40829E4102D40F3BE86102651
:1056E0002B9B04E0103D102D08F1080817DD013355
:1056F000AD4A1034072BCDE92B34C8E90026F1DD83
:10570000514648462AAA03F083FA00287FF4C2AE25
:10571000DDE92B34103D102D0DF1B408E7DC013329
:10572000A14A2C44072BCDE92B34C8E900257FF78B
:1057300021AC514648462AAA03F06AFA00287FF4B1
:10574000A9AE2C9C16E4249A002A40F38683109B71
:10575000139A9342A8BF1346002B1D460BDD2B9BCB
:105760002C440133072BC8E900752C942B9300F3CC
:105770001E8508F10808109B002DA8BF5B1B002B9D
:105780001D4600F35682109B3B441E46079B5B055B
:1057900000F17782249B139A934203DB079AD50783
:1057A00040F17A842B9A1799013218980C44072AF1
:1057B000C8E900012C942B9200F3068508F1080833
:1057C000139ABD18AD1BD31A9D42A8BF1D46002DCC
:1057D0000BDD2B9A2C440132072AC8E900652C9472
:1057E0002B9200F35F8508F10808002DB4BF1D4619
:1057F0005D1B002D7FF7B5AB102D40F376836B4F0B
:1058000010262B9B0F9705E008F10808103D102D7E
:1058100040F36E8301331034072BCDE92B34C8E9F4
:105820000076F1DD514648462AAA03F0F1F9002836
:105830007FF430AEDDE92B340DF1B408E6E7302B10
:105840003FF499AE3023023A07F8013C089956AB71
:105850009B1A174607910C933DE5079BD8073FF528
:1058600027AE01232B9D1C441D44072D2C94C8F802
:1058700000702B95C8F804307FF74DAE514648466E
:105880002AAA03F0C5F900287FF404AEDDE92B5401
:105890000DF1B40841E65E1E002E7FF73EAE102EDD
:1058A00040F31E87414BCDF824B01027D3460F9309
:1058B000CA46994605E008F10808103E102E40F34C
:1058C000F88201351034072DCDE92B54C8E9009733
:1058D000F1DD594650462AAA03F09AF9002840F013
:1058E000CC85DDE92B540DF1B408E6E75146484676
:1058F0002AAA03F08DF900287FF4CCAD2C9C0DF181
:10590000B408FFF71DBB089BDC0600F11981089B5A
:10591000580640F168830E9A012352F8044B002583
:105920000E92A4B2FFF77FBA2D23079A64428DF836
:105930008B3065EB450501230892FFF777BA514696
:1059400048462AAA03F064F900287FF4A3ADDDE9F4
:105950002B540DF1B408BAE5514648462AAA03F083
:1059600057F900287FF496ADDDE92B540DF1B4080A
:10597000BAE5079BDA077FF5F4AAD9E456AFAAE4A3
:105980000E9B5F4653F8041B0E930A9BDD171A46C5
:105990002B46C1E90023FFF703BB0E9B002553F8FC
:1059A000044B0E93FFF73ABAF496000804970008E8
:1059B000DDE914010B460246FBF744FD01460028D1
:1059C00040F04386612E00F08685412E00F07A84F7
:1059D000099B26F020055A1C089500F07D83472D71
:1059E00000F09E85DDE91401079B43F48073129358
:1059F0000B46002BC0F2BA8500220F931E920D9227
:105A00000C90462D0C9A00F00784452D4FF00200B3
:105A10000F9B40F0E783099900904C1C28A925A80A
:105A2000049124A9CDE902100194484600F034FF06
:105A300007460444129B079D0793002200230C98FD
:105A40000F99FBF7CDFC002800F098832346DB1B61
:105A50001393089B472B00F05E83089B462B00F0B6
:105A60000B84249B1093109B089A013B412A24939A
:105A700000F0AD850021F2B2002B8DF89820B6BF62
:105A80002D222B22109B8DF89920B8BFC3F1010362
:105A9000092B40F3A2850DF1A70E72469C46BF4C20
:105AA0006046114684FB0C234FEAEC72C2EBA30262
:105AB00002EB8203ACEB430330336328944601F8D6
:105AC000013C01F1FF32EBDC63463033D8B28B1E70
:105AD0009E4502F8010C40F22C860DF19A0301E07C
